:020000040800F2
:10000000781F0020D9000008B91D00088D0D0008D8
:1000100000000000000000000000000000000000E0
:10002000000000000000000000000000FD220008A9
:100030000000000000000000A920000801230008C3
:10004000EB00000800000000EB000008EB000008D7
:10005000EB000008EB000008EB0000089108000826
:10006000000000008D0800088F0800088B080008B9
:10007000EB000008C5230008E5230008000000008D
:10008000EB0000080000000000000000BB23000897
:1000900000000000EB000008EB000008EB00000887
:1000A000EB000008EB000008EB000008EB00000884
:1000B00055280008000000000000000000000000BB
:1000C0000448854600F036F900480047613B0008C7
:1000D000C046C046781F00200448804704480047B7
:1000E000FEE7FEE7FEE7FEE7FEE7FEE7B9230008CE
:1000F000C100000830B50B46014600202022012433
:1001000009E00D46D5409D4205D31D469540491B4B
:100110002546954040191546521E002DF1DC30BD94
:1001200070B500242546002801DA01244042002948
:1001300001DA01254942FFF7DDFFAC4200D0404221
:10014000002C00D0494270BDF0B51FB40646002017
:1001500082B005464024019100901BE0019922469F
:100160000F46304600F030F8049A059B801A9941FA
:1001700010D310461946224600F016F8361A8F4161
:100180000197224601200021009F00F00DF8381849
:100190004D4100902046641E0028DFDC019B009842
:1001A0002946324607B0F0BD10B5202A04DB0146CF
:1001B000203A9140002010BD914020239C1A034614
:1001C000E3401943904010BD10B5202A04DB0846D7
:1001D000203AD040002110BD0B46D340D04020240F
:1001E000A21A91400843194610BD03460B439B07D2
:1001F00003D009E008C9121F08C0042AFAD203E09C
:100200000B780370401C491C521EF9D27047D2B2C1
:1002100001E00270401C491EFBD270470022F6E745
:1002200010B513460A4604461946FFF7F0FF20466C
:1002300010BD421E5378521C002BFBD10B7813705B
:10024000491C521C002BF9D17047421C0178401CFC
:100250000029FBD1801A704710B5002200E0521C23
:10026000835C8C5CA34201D1002BF8D1D8B2E1B2FF
:10027000401A10BD30B504460020034600E05B1C68
:10028000934203D2E05CCD5C401BF8D030BD10B58A
:100290004843044603F0B2FC002805D00021002C9E
:1002A00002D0641E0155FAE710BD70B5064602F093
:1002B0003FFB046805460A220021304600F002F8A0
:1002C0002C6070BDF7B5009C0F4600262578641C95
:1002D000002D05D000F040F80068405DC007F5D162
:1002E0002B2D02D02D2D18D0641E39462046029A9F
:1002F00000F036F8002F04D03968A14201D10099EE
:1003000039607105022400290BDA4042002803DD20
:1003100002F00EFB0460A007FEBD01208002064330
:10032000E3E70028F8DA02F003FB04600048FEBDB2
:10033000FFFFFF7F064C0125064E05E0E36807CC72
:100340002B430C3C98471034B442F7D3FFF7BCFE64
:1003500038660008586600080048704704660008C0
:10036000F7B582B0029C00272078641C15460197DF
:10037000302802D0002D15D015E020780127641C0C
:10038000782804D0582802D0002D09D00BE0002D89
:1003900001D0102D07D1002710252078641C02E021
:1003A000082500E00A250026009610E000990127A4
:1003B00069430818020C294680B2714300908E18D8
:1003C0003804864201D3012001902078641C29461C
:1003D00000F019F80028E9DA0398002805D0002F6A
:1003E00001D0641E00E0029C04600198002806D041
:1003F00002F09EFA02210160C81E05B0F0BD00990E
:1004000030040843F9E73A2800D230382023024666
:100410009A43412A01D310463738884201D300203D
:10042000C043704770B58C180578401C6B075B0F94
:1004300001D10378401C2A1106D10278401C03E048
:1004400006780E70401C491C5B1EF9D12B0705D4A1
:100450000023521E0DD40B70491CFAE70378401C90
:10046000CB1A921C03E01D780D70491C5B1C521EB8
:10047000F9D5A142D8D3002070BD0000F8B50546DB
:10048000254F3E68102D0CD006DC022D0BD0042D1C
:100490000FD0082D10D10EE0202D06D0402D0BD10D
:1004A00005E0012408E0022406E0042404E0062418
:1004B00002E0032400E005242946602000F0E1F971
:1004C00022E0FF279137384605F0C9FE00F028F9F1
:1004D000A04201D10120F8BD402D09D1384605F0D8
:1004E000BEFE6A2000F08FF9000701D50120F8BD9B
:1004F000082D09D1384605F0B2FE6D2000F083F9D1
:10050000C00701D00120F8BD03480068801B0A28FD
:10051000D7D30020F8BD00003C000020F8B500272C
:1005200000250024662000F06EF98006C10F0091BE
:100530006D2000F068F906466A2000F064F9009921
:10054000002903D0F143CEB2C043C0B2F10900D0BC
:10055000202572060121002A00DA0D43B20600D5DB
:100560000D43F20602D5102215431024320702D59E
:10057000082215431443720702D50422154314437D
:10058000B3070222002B01DA15431443F20701D00E
:100590000D430C43820602D5022780221443C20673
:1005A00002D50F4340210C43000703D50420074325
:1005B0002020044339466A2000F063F929466B2065
:1005C00000F05FF90098002801D0E043C4B2204653
:1005D000F8BD10B56E2000F016F9044602216C201B
:1005E00000F04FF9204610BD10B56E2000F00BF959
:1005F000044601216C2000F044F9204610BD10B5DE
:100600000146652000F03DF910BD70B50D46C406E9
:10061000E40E662000F0F7F8410949012143662005
:1006200000F02FF9EC06E40E672000F0ECF8410929
:1006300049012143672000F024F970BDF8B5054653
:100640000E461746002406E06019315DC0B200F086
:1006500018F9641CE4B2BC42F6D30120F8BD0000D6
:1006600010B501F0E7FD00F0B3F800280CD04F20E2
:1006700000F0D8F800F05BF804F0F4FD034C606083
:1006800004F0F0FDA06010BDFEE700009401002022
:1006900010B501F0CFFD00F09BF8002807D04F20E7
:1006A00000F0C0F80248007800F0B6F810BDFEE790
:1006B000F800002010B50146682000F0E2F810BDF7
:1006C00010B504460D2000F09EF8002C06D08021C5
:1006D0000843402108432021014305E04106490E1B
:1006E000BF200140DF2001400D2000F0CAF810BDFE
:1006F00010B5692000F087F841084900FB2001404F
:10070000692000F0BEF810BD10B5692000F07BF83C
:100710000121084304210143692000F0B2F810BD13
:1007200010B5612000F06FF80007000F10BD10B584
:1007300000F016F8FFF7F2FE012000F08CF8FFF74A
:10074000D7FFFFF746FF00F001F810BD10B50820F5
:10075000FFF794FE10BD10B51020FFF78FFE10BDFF
:1007600010B50220FFF78AFE10BD10B54020FFF73C
:1007700085FE10BD10B500F07AF8142005F063FD79
:10078000FFF7EEFF612000F03EF810210843DF2163
:100790000140612000F075F8622000F034F820215B
:1007A00008430146622000F06CF80020FFF788FF44
:1007B000FFF7B4FE10BD000010B501218903034806
:1007C00001F074FD02F0D4F810BD000000080050E4
:1007D00070B5482000F017F80546AA21482000F01F
:1007E00050F8482000F00FF804462946482000F051
:1007F00048F8AA2C01D0002070BD012070BD10B5B2
:1008000002F01CF910BD08B5FF210091694602F005
:10081000D7F86A46107808BD10B50146632000F08D
:1008200030F810BD10B50146642000F02AF810BD64
:1008300010B504464520FFF7E6FF8F210840210947
:10084000702211400143452000F01BF8E1B2462020
:1008500000F017F810BD10B504464520FFF7D3FF90
:10086000E107C90F0143452000F00BF810BD10B59A
:10087000FF217F2000F005F810BD10B502F0A0F9AF
:1008800010BD10B502F062F910BD70477047704797
:1008900010B50123DB021946194AD06881432DD0D7
:1008A0000020002829D01946D160022000F0D6F996
:1008B000FF2822D0022000F0D1F900281DD0FFF738
:1008C0002DFE1048202101700F48FFF798FF0E49B8
:1008D0000A78491C481EFFF788FCFFF77AFE0B498F
:1008E000012008700A4C20688168072901DB04F0A8
:1008F0008DFC0549206804F09AFC10BD0120D0E76A
:1009000000180240A2010020540C0020A101002088
:100910009801002010B505490020086003F0E2FBB3
:1009200000F068F800F004F8002010BD3C00002042
:1009300070B5244D2449254C224A20780C32815030
:1009400023482178161F8851FF221432002128469F
:1009500000F068FB0021284600F038FB1C48001D11
:100960006178885100220121284600F05BFB0121BB
:10097000284600F017FB1648402224380262102453
:100980000462EFF31081012383F31088036823438B
:10099000036081F31088EFF31081012383F3108843
:1009A00083681343836081F31088EFF31081012281
:1009B00082F31088826880231A43826081F3108852
:1009C000002070BD0000024048020020886300083B
:1009D0002444004010B50549054A4118914202D20D
:1009E0008047002010BDFF2010BD0000FFF5FFF77D
:1009F000FF7500007047000010B501228A40030017
:100A000001F02CFF06040A0F141E191E05201146C2
:100A1000000700F08FFC10BD11460A4800F08AFC68
:100A200010BD1146084800F085FC10BD114607486E
:100A300000F080FC10BD1146054800F07BFC10BDA5
:100A4000002010BD0004005000080050000C0050B1
:100A50000014005000B501228A40030001F0FEFEA0
:100A60000604080B0E07110705200007826200BD6F
:100A70000548826200BD0548826200BD044882626A
:100A800000BD0448826200BD000400500008005010
:100A9000000C00500014005000B501228A400300F1
:100AA00001F0DCFE0604080B0E0711070520000705
:100AB000826100BD0548826100BD0548826100BDBC
:100AC0000448826100BD0448826100BD00040050FA
:100AD00000080050000C00500014005010B5002A0F
:100AE00006D0012A07D0022A01D100F007F810BD74
:100AF000FFF7B0FF10BDFFF7CFFF10BD10B501220B
:100B00008A40030001F0AAFE06040A0F140919091D
:100B100005201146000700F014FC10BD11460948DD
:100B200000F00FFC10BD1146074800F00AFC10BD94
:100B30001146064800F005FC10BD1146044800F0BF
:100B400000FC10BD0004005000080050000C0050D4
:100B50000014005070B5164A126815460023154C53
:100B6000647A09E056687668864202D15268517606
:100B700004E012685B1CDBB29C42F3D82A68002AAE
:100B800002D00023641E0EE0002070BD5568AD68E1
:100B9000854205D15568AD68002D01D05568A9760C
:100BA00012685B1CDBB29C42F0DC022070BD0000CE
:100BB0002C0000203C02002010B5FFF7ABFE002007
:100BC000FF21C043FFF7C6FF10BD0000F8B5104875
:100BD000046805260F4F002038607860B860002553
:100BE00013E0082003F00AF8206021680020086064
:100BF000486007491C206843143140186060787AC7
:100C0000401C787224686D1CEDB2B542E9D3F8BD82
:100C10002C0000203C020020FFF7D8FF00F038F83D
:100C2000014800F07DF8F9E73C00002010B50949C3
:100C300009680022084B5B7A08E04C6864688442CB
:100C400001D1486810BD0968521CD2B29342F4D851
:100C5000002010BD2C0000203C02002010B50A49E5
:100C600009680022094B5B7A09E04C686468844299
:100C700002D14868407E10BD0968521CD2B293422E
:100C8000F3D8FF2010BD00002C0000203C02002003
:100C900070B5214D2868E8600024204E35E0E868F2
:100CA0004168897E002900D0012142689268002AAB
:100CB00007D0002211434268527EFF2A03D001224E
:100CC00002E00122F6E700221140426843681269FF
:100CD000DB689A4201D3012200E000224368DB680E
:100CE000002B16D000231A43114042681268002AD4
:100CF00000D00122114203D040680068FFF76AFE6D
:100D0000E8680068E860641CE4B2707AA042C6D863
:100D100070BD0123E7E700002C0000203C0200200A
:100D200030B5184B00685968884229D05860186857
:100D3000006898600021144C1EE09868426845687D
:100D40001269ED68AA420BD84268527E012A03D08C
:100D50004268527E022A03D14268D268002A03D137
:100D600042685269012A03D1426815696D1C1561F8
:100D700000689860491CC9B2607A401E8842DCDC79
:100D800030BD00002C0000203C020020FEE70000E7
:100D900003490A69D203FCD40861BFF36F8F70471F
:100DA0000020024010B50F490A69D203FCD44B69F8
:100DB000022213434B614B690B4C23404B614B693F
:100DC0001F24E4060019C00AC00003434B614869B0
:100DD000D303184348610869C003FCD448699043B1
:100DE000486110BD0020024007E0FFFF0448016990
:100DF000C903FCD441690122D20711434161704704
:100E00000020024030B50A490C69E403FCD44C6967
:100E100001252C434C610260BFF36F8F436008696A
:100E2000C003FCD4486940084000486130BD000060
:100E30000020024004480169C903FCD403498160D1
:100E4000034981607047000000200240230167458C
:100E5000AB89EFCDF0B504460D461746002308E0F8
:100E6000204600F009F8DE00AA1903C208345B1C12
:100E70009BB2BB42F4D3F0BD026841681046704794
:100E8000F7B582B015461F210298C9064018012106
:100E90000904884243D2C10A00914005060EFF2092
:100EA0000130841BA54200D82C462D4F4BE0311851
:100EB000C90079180A684968D243C9430A4302D174
:100EC000401CA042F3D3A0421BD2FFF7B3FF25483A
:100ED000FFF75EFF0198FFF765FF002008E0039928
:100EE000C2008A18331806CADB00FB1806C3401C70
:100EF000A042F4D3FF2201321949019800F034F8DE
:100F000009E0FFF797FF1748FFF742FFA2B20399E6
:100F1000029800F029F8A54203D1FFF767FF05B05A
:100F2000F0BD0098401C009000260398E1000818CE
:100F30000390029800190290281B85B2FF24013407
:100F4000A54200D82C460098FF22C1020120C0060D
:100F50000818013202490190FFF77CFF0020B0E73A
:100F6000B803002039000100F0B505460E461746CB
:100F7000002408E0E00030180CC82846FFF742FFC4
:100F80000835641CA4B2BC42F4D3F0BD08B50449D2
:100F90000A6802430A6009680140009108BD000028
:100FA00040100240034A515C4258520852004250DD
:100FB0007047000088630008034A515C4258520899
:100FC00052004250704700008D630008034A515C94
:100FD000425801231A4342507047000088630008BA
:100FE000034A515C425801231A43425070470000A3
:100FF0008D63000810B5044B595C43580324240347
:10100000A3431343435010BDC862000810B5044BFE
:10101000595C435803242403A3431343435010BD96
:10102000F1620008044B001D595C0B581B0C1B049B
:1010300013430B507047000088630008044B001DE9
:10104000595C0B581B0C1B0413430B5070470000DA
:101050008D63000810B5044B595C4358034C234082
:101060001343435010BD0000C8620008EFBFFFFFEC
:1010700010B5044B595C4358034C23401343435071
:1010800010BD0000F1620008EFBFFFFF10B5044B78
:10109000595C43588024A3431343435010BD0000C0
:1010A000C862000810B5044B595C43588024A34320
:1010B0001343435010BD0000F162000810B5044B0B
:1010C000595C43580324A402A3431343435010BD67
:1010D000C862000810B5044B595C43580324A402AD
:1010E000A3431343435010BDF162000810B5044BF5
:1010F000595C43582024A3431343435010BD0000C0
:10110000C862000810B5044B595C43582024A3431F
:101110001343435010BD0000F162000810B5044BAA
:10112000595C43584024A3431343435010BD00006F
:10113000C862000810B5044B595C43584024A343CF
:101140001343435010BD0000F1620008074B5840A4
:10115000800AC300181A890080000918044808187A
:10116000016889098901114301607047000002404C
:1011700000080240074B5840800AC300181A890033
:101180008000091804480818016889098901114379
:1011900001607047000002400008024010B5044B97
:1011A000595C435803242402A3431343435010BD06
:1011B000C862000810B5044B595C4358032424024C
:1011C000A3431343435010BDF162000810B5002241
:1011D00003792C4C0168002B4AD000294FD0437969
:1011E000002B12D0012B18D0022B1ED001228179A6
:1011F000002944D0234B803B01291ED0022925D051
:1012000003292CD00220024339E063688B436360DA
:10121000016823680B432360E9E723688B4323605D
:10122000016863680B436360E1E723680B43236055
:10123000016863680B436360D9E701685C688C43AD
:101240005C60006819680143196018E001681C6857
:101250008C431C6000685968014359600FE00168C5
:101260001C680C431C60006859680143596006E023
:1012700023688B4323600068616881436160104686
:1012800010BD000080180240F0B500234CE001249E
:101290009C402240002A46D04C68012C01D0022CF0
:1012A0000FD18D681446866864436700E719BE4312
:1012B0006C4326438660CC68456854439543254378
:1012C00045600F691446C668644365006519AC46FD
:1012D000AE4325467D432E43C6604D68022D1BD18B
:1012E000FF2A0CD84F691646056A2246724372439C
:1012F0001601B61AB5437A43154305620CE04E69F0
:10130000150A2A466A436A436A431501476AAD1AB9
:10131000AF437243174347624A6805686646B54360
:101320005443254305605B1C0A681446DC40AED17B
:101330000020F0BD0069814301D0002070470120EA
:101340007047426913460B401B0491430B43836172
:101350007047000008B504494A6B02434A63496B71
:101360000140009108BD00000010024008B504498A
:101370004A6B02434A63496B0140009108BD00007B
:101380000010024010B57D21C900FEF7B3FE0449EC
:10139000401E4861002088610520086110BD0000E2
:1013A00000E000E010B5044600F0A4FE206000F06C
:1013B0007DFE606000F08CFEA06010BD10B501469F
:1013C0000020032913D1144A516903238907890F87
:1013D0001B041943DB43C9180AD001290BD0022989
:1013E00012D000F087FE00F061FE00F071FE10BD2B
:1013F00000F080FE10BD0849403909684905C90F51
:101400000029F7D0054810BDD1698907C90F002907
:10141000F9D00120C00310BD401002400024F400A8
:1014200030B5012203685B06DB0FD402002B2DD1FF
:101430004B680A680D691A43CB682B431A434B6902
:101440001A438B691A43CB691A430B6A1A43036820
:10145000114D2B401A4302604268104B1A404B69F1
:101460001B0C1A438B681A4342608A68A24204D25A
:10147000630042689A431A43426001230A6A5B038D
:101480009A4202D1898C89B201610022C169A143CB
:10149000C161104630BD00004000FFFFFBF0FFFFC0
:1014A00001490860704700001400002010B50129B0
:1014B00010D0042910D0102910D0402910D0CB1FF3
:1014C000F93B05D001239B0299420BD1052116E07F
:1014D000042114E0002112E0012110E002210EE0BD
:1014E00003210CE001231B03994201D1062106E0F0
:1014F00001231B04994201D1072100E00821036A5E
:10150000044C615C0A248C40A3438A401343036269
:1015100010BD00007865000870B50268174B184EC2
:10152000984201D0B04203D17024A2434C682243B8
:10153000144C154D984208D0B04206D0134EB0421C
:1015400003D0A04201D0A84204D103263602B24300
:10155000CE68324302608A68C2620A888262984218
:1015600003D0A04201D0A84201D1096901634169B9
:10157000012211434161002070BD0000002C014098
:1015800000040040004401400048014000200040A9
:1015900070B50C460346114601200203A51A944279
:1015A0001FD00ADC012C14D0102C16D0FF3C013CBB
:1015B00002D1184600F08EFC70BD0F221203AA1A49
:1015C00013D00F242404A242F6D1184600F036FDB1
:1015D00070BD184600F0F2FB70BD184600F032FCFA
:1015E00070BD184600F0BEFC70BD184600F0F2FC5D
:1015F00070BD0000FEB504460D460127002021689D
:10160000394000295CD12A69A968EB6911436A69EC
:101610001A43114322682B4B1A4011432160E96899
:10162000626803231B039A430A436260A969A268A4
:101630001B119A430A43A26023498C4203D1032021
:10164000FFF7BCFE06E021498C4203D16846FFF754
:10165000A9FE029800282CD06E68002E29D0002701
:10166000EA6929680B2924D80123DB039A4213D1A4
:1016700009068A0D16498958FEF73CFD400071089D
:1016800040183146FEF736FD80B21249014000078E
:10169000420F0A43E2600CE009068A0D0C498958A2
:1016A000FEF728FD710840183146FEF723FD80B291
:1016B000E0602888E16A80B2090909010143E1621A
:1016C0003846FEBDF369FFEF00380140004400409A
:1016D000F8620008F0FF000008B507490A690092A7
:1016E000421C05D0401C03E00A69D20300D5401E0D
:1016F0000028F9D108BD000000E000E008B5012194
:101700000E48826B0A438263806B08400090002180
:10171000092001F0C9F8092001F0AEF800210A20E3
:1017200001F0C2F80A2001F0A7F800210B2001F017
:10173000BBF80B2001F0A0F808BD0000001002402B
:10174000F0B589B0002407940894182101A8FEF789
:1017500065FD0220FFF7FEFD0420FFF7FBFD0120E1
:10176000FFF7F8FD802042498862424FC001B8620D
:101770004000B862012005263607B0620220B06240
:10178000C002B0621020B061802001900125029556
:10179000032003900494059501A93548FFF774FDD3
:1017A000A8030190029503940494059401A9384676
:1017B000FFF76AFDE80301900295039404940594F1
:1017C00001A93846FFF760FD0195029503200390BB
:1017D0000494059401A93046FFF756FD02200190BC
:1017E0000295032003900494059401A93046FFF765
:1017F0004BFD10200190029503940494059501A9D6
:101800003046FFF741FD2803019002950320039025
:101810000494059401A93046FFF736FDE8030190D2
:101820000294059501A93046FFF72EFD1249086E76
:101830000722120690430866C814079008A805708E
:101840004470857007A8FFF7C1FCF0680321890583
:101850008843F060306888433060084801680902B6
:10186000090A016006498020086009B0F0BD000047
:1018700000040050000800500818024004E400E092
:1018800000E100E0F0B591B0282107A8FEF7C6FC02
:10189000182101A8FEF7C2FC012109035248026881
:1018A0000A43026000680840009001214E48403819
:1018B000426B0A434263406B084000902020019035
:1018C00002250295032603960024049405950694A8
:1018D00005273F0701A93846FFF7D6FC40200190B5
:1018E0000295039604940595069401A93846FFF7DE
:1018F000CBFC8020019002950396049405950694F4
:1019000001A93846FFF7C0FC384D102202212846B5
:10191000FFF71CFC002202212846FFF79BFB002258
:1019200002212846FFF766FB002202212846FFF726
:10193000DDFB002202212846FFF7F0FB8022022176
:101940002846FFF7A3FB002202212846FFF726FCCA
:10195000002202212846FFF7B1FB1122032128466D
:10196000FFF7F4FB102203212846FFF773FB002248
:1019700003212846FFF73EFB002203212846FFF7FC
:10198000B5FB002203212846FFF7C8FB8022032174
:101990002846FFF77BFB002203212846FFF7FEFBCA
:1019A000002203212846FFF789FB0794FF2005301A
:1019B00008900720000209900A940B9468150C9077
:1019C00010250D950E940F9407201090084C07A930
:1019D0002046FFF725FD6068A84360606068082125
:1019E0008843606011B0F0BD40100240000002402A
:1019F0000030014010B586B0142101A8FEF70EFC9E
:101A00000120C003FFF7C2FA0021132000F06EFF8F
:101A1000132000F03DFF3F2069468880002002909F
:101A2000039004900A4C01A92046FFF775FD206839
:101A30008021884320600120C0432061E0680121AB
:101A40000843E06020688843206006B010BD0000B5
:101A500000200040F0B58BB0142106A8FEF7DEFB95
:101A600018216846FEF7DAFB0120C002FFF78EFA64
:101A70000220FFF77BFC40200090022001900290A2
:101A80000027039701260496059669463148FFF71B
:101A9000FBFB00210D2000F029FF0D2000F0F8FED7
:101AA00000210E2000F022FF0E2000F0F1FE3F206A
:101AB0006946088307972848089009970A97274C92
:101AC00006A92046FFF728FD206880218843206072
:101AD000A068234A1040A060606870229043606054
:101AE00060680F22120590436060A0688843A06080
:101AF0001C4801791948183009180A68194D032043
:101B000012352B79984082439E4032430A60086820
:101B10002B790C229A4090439F4038430860086814
:101B20002B79F0229A40904320229A40104308607B
:101B30000220216A2A46093215790A23AB409943CB
:101B4000A840014321620120C0432061C01F2061E1
:101B50000BB0F0BD00040050FFFF0000002C01405E
:101B6000F8BFFEFFCD620008F0B595B0142110A8B3
:101B7000FEF754FB202108A8FEF750FB182102A80D
:101B8000FEF74CFB02202749CA6B0243CA63C96BAC
:101B900001400191002510A805801195224812905E
:101BA0001395224E10A93046FFF7B6FC326880210B
:101BB0008A43326049001E4802791C4818301418C4
:101BC00020681B4F082209373B799A401043206058
:101BD0006020089009950A950B950C9508AA304647
:101BE000FFF7D6FC20683A790421914088432060B1
:101BF0007068702188437060B06880218843B0604D
:101C00000220FFF7B3FB012002900221039104950B
:101C100005950695079002A90648FFF735FB15B014
:101C2000F0BD0000001002409306000000040040D8
:101C3000CD62000800040050F0B58FB0202107A845
:101C4000FEF7ECFA182101A8FEF7E8FA0121490491
:101C50005448C26B0A43C263C26B0A40009201211E
:101C6000426B0A434263406B08400090042001909D
:101C700002260296002403940494059401250695F7
:101C800005273F0701A93846FFF7FEFA0820019013
:101C90000296039404940594069501A93846FFF72B
:101CA000F3FA414E342200213046FFF763FA002256
:101CB00011463046FFF7DCF9002211463046FFF7A7
:101CC000A5F9202200213046FFF71CFA0022114618
:101CD0003046FFF72FFA802200213046FFF7E2F965
:101CE000002211463046FFF765FA002211463046C1
:101CF000FFF7F0F9352201213046FFF73BFA1022B9
:101D000001213046FFF7B4F9002201213046FFF7E8
:101D10007DF9002201213046FFF7F4F9002201216C
:101D20003046FFF707FA802201213046FFF7BAF963
:101D3000002201213046FFF73DFA00220121304602
:101D4000FFF7C8F919480168090A09020160184932
:101D5000280708600794E1204002089009940A943B
:101D60000B940C200C900D940E94124C07A9204655
:101D7000FFF740FC60680921C90288436060A068E1
:101D80002A218843A060206828432060E0698002FF
:101D9000C10F0029FAD0E0694002C00F0028F5D039
:101DA0000FB0F0BD00100240000002401CE400E053
:101DB00000E100E000440040FEE7000030B5026AA8
:101DC000520852000262026A43688469A408A400AF
:101DD000184D2C400D682C430225AA430D692A4357
:101DE00052084D6852002A43134DA84205D0134DA6
:101DF000A84202D0124DA84214D10825AA434D6929
:101E0000AD002A430425AA438D68AD002A43FF256F
:101E10000135AB438D692B4301256D02AB43CD6981
:101E20006D002B4343608461C968416302620020F6
:101E300030BD00008FFFFEFF002C01400044014038
:101E40000048014070B5026A1025AA430262026A86
:101E50004368846903263602B4431A4E34400E6840
:101E6000360234432026B2430E6936013243AA4378
:101E70004D682D012A43144DA84205D0134DA842A8
:101E800002D0134DA84215D18025AA434D69AD015A
:101E90002A434025AA438D68AD012A430125AD029E
:101EA000AB438D69AD002B430125ED02AB43CD69FA
:101EB000ED002B4343608461C968816302620020A6
:101EC00070BD0000FF8FFFFE002C01400044014068
:101ED0000048014070B5026AFF250135AA4302623D
:101EE000026A4368C469A408A4001A4E34400E680C
:101EF00034436E00B2430E6936023243AA434D6842
:101F00002D022A43144DA84205D0144DA84202D0F8
:101F1000134DA84217D10125ED02AA434D69AD0228
:101F20002A430125AD02AA438D68AD022A4301254B
:101F30002D03AB438D692D012B4301256D03AB436D
:101F4000CD696D012B434360C461C968C1630262FE
:101F5000002070BD8FFFFEFF002C014000440140B7
:101F60000048014070B5026A01252D03AA430262B0
:101F7000036A4268C46903263602B443114E3440F2
:101F80000E68360234436E00B3430E6936033343A2
:101F9000AB434D682D032B430B4DA84205D00B4D91
:101FA000A84202D00A4DA84205D10125AD03AA439B
:101FB0008D69AD012A434260C461C968016403624E
:101FC000002070BDFF8FFFFE002C01400044014047
:101FD0000048014030B5026A01242404A243026291
:101FE000026A436D114D2B400D682B436500AA43D7
:101FF0000D8A2D042A438D88A2432D042A430C4DBB
:10200000A84205D00B4DA84202D00B4DA84205D1E5
:102010004568A5438C692402254345604365C9682A
:10202000836D81650262002030BD00008FFFFEFFDE
:10203000002C0140004401400048014030B5026AD4
:1020400001242405A2430262026A436D124D2B4013
:102050000D682D022B436500AA430D8A2D052A43E6
:10206000A2438C88240522430C4CA04205D00C4C82
:10207000A04202D00B4CA04207D144680125AD0418
:10208000AC438D69AD022C4344604365C968C165AA
:102090000262002030BD0000FF8FFFFE002C0140D7
:1020A000004401400048014070470000064989682B
:1020B0000F221202114089093C221140034A515C4F
:1020C000C906C90EC84070470010024028630008C6
:1020D00006498968072212031140090B044A890046
:1020E000515CC906C90EC84070470000001002408C
:1020F0006863000810B50B4988683822104008282A
:102100000AD010280AD0086801218004400F8140BD
:102110000548FDF7EFFF10BD044810BD00F008F8BA
:1021200010BD0000001002400024F40000127A00EC
:1021300010B50E4BD8688007800F0D4A022802D0D8
:10214000032800D15210D868440F641CD86870214D
:1021500008400109491CD8684004400E5043FDF76F
:10216000C9FF2146FDF7C6FF10BD00000010024068
:102170000024F400F8B505460C46FEF7F1FAFEF728
:10218000CDF90020FEF767FB2046FEF751FBFEF776
:10219000BBFAFEF729FA21462846FEF76EFB6E20B1
:1021A000FEF731FB80070925164C002800DB25705F
:1021B000FEF7DBFA00280AD0062020700125A57062
:1021C000114A11680727FF26104BF53614E02570D9
:1021D000F4E71869400403D50020A07027700BE0D5
:1021E0001068401AB04207D9FEF752FAFEF7F1F92B
:1021F000FEF7FAF9A57002E020780728E9D1FEF78A
:1022000096FAF8BD940100203C0000200008005020
:1022100010B51520FEF7F3F907210A20FEF7F5F9AE
:102220003F20FEF747FA0020FEF74AFAFEF793FA3E
:1022300010BD000010B5FEF7BFFAFEF79BFA0C22A6
:1022400018490020FEF7FAF916490C220C31104605
:10225000FEF7F4F91349082208391820FEF7EEF9C1
:102260001049182218312020FEF7E8F90D491D22E7
:1022700030313820FEF7E2F90A490B224D31552062
:10228000FEF7DCF90920FEF7BEFAC108C9000220FA
:1022900001430920FEF7F5FAFFF7BAFF02490020D3
:1022A000087010BD206500089401002030B587B08B
:1022B00005460C46182101A8FDF7B0FF0194002146
:1022C00002910121059101A92846FEF7DDFF07B023
:1022D00030BD30B587B005460C46182101A8FDF782
:1022E0009DFF019401210291002203920492059125
:1022F00001A92846FEF7C8FF07B030BD70470000AF
:1023000010B500F0DFFD02480168491C016010BDF6
:102310003C00002010B5022122480268D208D200F9
:102320000A43026001684907490F0229FAD11E4891
:10233000016882151143016001684905C90F002930
:10234000FAD01A49C2681A4B1A401143C160016899
:102350000122120611430160C16812011143C160DC
:1023600001688901C90F0029FAD081680F22120281
:102370009143816002218268D208D2000A438260C0
:102380003822816811401029FBD18168072212038D
:1023900091438160074C2046FEF7F4FF2046FFF78B
:1023A0007FF810BD0020024000100240020800200B
:1023B0008C80FF1F0090D003704710B501F0B6FA73
:1023C00010BD000010B50648C168C907C90F002933
:1023D00004D00121C943016101F032FB10BD0000AE
:1023E000002C014010B5084CE0680007C00F002821
:1023F00008D00820C0432061E06B80B201F0BAF839
:102400000020606210BD0000002C014070B5054640
:10241000A0352C780A2C1BD20022CB6808E01601CC
:102420003618F6689E4201D1032070BD521CD2B20C
:102430009442F4D8220112184C68086889685460E4
:10244000D360916010602878401C2870002070BD17
:10245000012070BD10B5A42001F0D0FB0446A421DA
:102460002046FDF7DBFE204610BDF0B5002935D033
:1024700000220446A03423782CE015012D18ED68C5
:102480008D4225D11101091800230B604B608B6030
:10249000CB602178491E914215DD092A13D01346DD
:1024A0000DE019015B1C9C461B011B181D46E0CD6D
:1024B0000918DB68E0C10C39CB606346DBB22178D8
:1024C000891A9942EDDC2078401E20700020F0BD72
:1024D000521CD2B29342D0D80220F0BDFF20F0BDF2
:1024E000F3B581B00646002E59D002980068002846
:1024F00055D000243546A0354BE020018719F868F7
:10250000002844D03868002812D0B9683868814261
:102510003AD3F868FEF75EFA002038607860B86059
:10252000F8602878A04222D9092C20D020461AE051
:10253000B8687968884204D3F868FEF74BFA00203F
:10254000B860B868401CB86021E00101401C8446B6
:102550000001801902468CCA8919C0688CC10C39E7
:10256000C8606046C0B22978091B8142EDDC28783A
:10257000401E000181190020086048608860C86022
:102580002878401E287002E0B868401CB860641CBF
:10259000E4B22878A042B0D8029900200860FEBDBD
:1025A00010B50348016840681031FFF799FF10BD6E
:1025B000600100200249002009680861704700009E
:1025C000600100207FB50320FEF730FB174C206030
:1025D0001749884229D0002827D0FFF73BFF6060C9
:1025E0000020009001900290039003F069FE012604
:1025F0000670104803900A25019569466068FFF748
:1026000005FF0D480390019569466068FFF7FEFEDF
:102610000A480390019569466068FFF7F7FE206855
:10262000466101210320FEF795FA7FBD600100207D
:10263000E00B0020C53A00087162000889620008BA
:1026400010B50548044900680831407E80000858EC
:10265000FEF7C0F910BD00006001002010B5022295
:1026600007210120FEF73AFA10BD000010B5054918
:10267000002009680861022207210120FEF72EFAD6
:1026800010BD00007401002010B50120FEF7CEFA45
:1026900008490860084988420AD0002808D000216B
:1026A0000161FF21F531C16001210846FEF752FAB0
:1026B00010BD000074010020FC0B002010B506487E
:1026C000002100680161407E03498000091D08580F
:1026D000FEF780F910BD00007401002010B503481A
:1026E000016880681031FFF7FBFE10BD4801002033
:1026F00010B505490020096808610021022208463A
:10270000FEF7ECF910BD0000480100207FB5002461
:1027100000940194029403940220FEF787FA234D5B
:102720002860FFF797FEA860FDF79AFF2049286808
:10273000884239D0002837D002F0A4FE68601D48D6
:102740000078FEF769F868680470FF218174C1742D
:1027500001751948194A016840685140014309D080
:10276000174803907D20C00000906946A868FFF7D5
:102770004DFE02E0012002F085FD12480390012683
:10278000019600946946A868FFF740FE0E48039042
:102790000E4801906946A868FFF738FE2868466130
:1027A00001210220FEF7D6F97FBD0000480100207C
:1027B000C40B0020F8000020E0000020FFFFFF0015
:1027C0001D5800088D54000815560008307500008B
:1027D00010B50548044900680C31407E8000085857
:1027E000FEF7F8F810BD00004801002010B50249BE
:1027F000024803F073FB10BDCC000020480200200B
:102800007047000010B50520FEF710FA0749086070
:102810000749884209D0002807D0002101610A2118
:10282000C16001210520FEF795F910BD840100204B
:10283000180C002010B50648002100680161407E98
:1028400003498000091D0858FEF7C4F810BD0000B8
:102850008401002010B500F087FD10BD30B474462F
:10286000641E2578641CAB4200D21D46635D5B008C
:10287000E31830BC18470000002805DBC106C90E6C
:1028800001208840014908607047000000E100E035
:10289000002805DBC106C90E0120884001490860F7
:1028A0007047000000E100E08307FF22DB0E9A4042
:1028B0008907090E9940002808DB830809489B0016
:1028C0001818036893430B43036070470007000F19
:1028D0000838830804489B001818C36993430B43C6
:1028E000C361704700E400E000ED00E08307FF22D1
:1028F000DB0E9A408907090E9940002808DB8308FF
:1029000009489B001818036893430B430360704702
:102910000007000F0838830804489B001818C36993
:1029200093430B43C361704700E400E000ED00E017
:10293000004870473802002002E008C8121F08C192
:10294000002AFAD170477047002001E001C1121F30
:10295000002AFBD170470720401E411CFCD1704764
:1029600008200146401E80B20029FAD170470000BD
:1029700070B50125ED03114CA56129462046FFF7EE
:10298000A8FCA561012005242407A062012120469E
:10299000FFF79FFC0120A0620220A06102212046D7
:1029A000FFF797FC0220A061C502A56129462046D9
:1029B000FFF78FFCA561FFF7CEFF70BD0008005048
:1029C000F3B581B0022005242407A061022120462E
:1029D000FFF77FFC0120A06201212046FFF779FC70
:1029E0000120A0620503A56129462046FFF771FC7E
:1029F000A561EE00104FBE62FFF7ADFFFFF7ABFF22
:102A000001988021084300F086F802212046FFF754
:102A10004DFC00F063F8029908700120A062FFF7F6
:102A20009AFFFFF798FFBE610220A06102212046B5
:102A3000FFF73CFCA561FEBD00080050F3B581B076
:102A400007460124240305252D07AC6121462846AD
:102A5000FFF73FFCAC61E4001F4EB46121463046F5
:102A6000FFF737FCB4610120A86201212846FFF777
:102A700030FC0120A86202212846FFF717FC002441
:102A8000012636031EE0AE62FFF765FFFFF763FF26
:102A900000F024F838550120A862FFF761FFFFF726
:102AA0005FFFFFF75DFFAE61FFF75AFFFFF758FFCB
:102AB000FFF756FFFFF754FFFFF752FFFFF750FFF6
:102AC000641CA4B202988442DDD302212846FFF799
:102AD000EDFBAE61FEBD00000008005070B5FF24A4
:102AE0000025052636070120B062FFF734FF600697
:102AF000040E0120B0613069800702D50120044333
:102B000001E064086400FFF726FF6D1CEDB2082D9C
:102B1000E9D3204670BD70B505460024052636076A
:102B20000120B062280602D50220B06101E0022037
:102B3000B062FFF710FF6806050E0120B061FFF7D5
:102B40000AFF641CE4B2082CEAD370BDF3B581B06F
:102B5000022005242407A06102212046FFF7B9FBCB
:102B60000120A06201212046FFF7B3FB0120A062F3
:102B70000503A56129462046FFF7ABFBA561EE00E2
:102B80000E4FBE62FFF7E7FEFFF7E5FE0198400635
:102B9000400EFFF7C0FF0298FFF7BDFF0120A062C3
:102BA000FFF7D9FEFFF7D7FEBE610220A061022128
:102BB0002046FFF77BFBA561FEBD0000000800502A
:102BC000F3B581B007460124240305252D07AC6128
:102BD00021462846FFF77DFBAC61E4001F4EB4613F
:102BE00021463046FFF775FBB4610120A862012140
:102BF0002846FFF76EFB0120A86202212846FFF756
:102C000068FB0024012636031EE0AE62FFF7A3FE38
:102C1000FFF7A1FE385DFFF77EFF0120A862FFF7F6
:102C20009FFEFFF79DFEFFF79BFEAE61FFF798FE4C
:102C3000FFF796FEFFF794FEFFF792FEFFF790FE78
:102C4000FFF78EFE641CA4B202988442DDD30221F9
:102C50002846FFF72BFBAE61FEBD000000080050C8
:102C600001480069704700001800002010B500F00E
:102C700013FB0520FEF730FD00F0E2F80520FEF71B
:102C80002BFD00F08DF80149086110BD18000020EF
:102C900070B50B4C01202070002509E06088C82821
:102CA00003D325706580012070BD0120FEF714FD5F
:102CB00000F090F8C007F1D12570658070BD00006C
:102CC0001800002070B504460A4D01202870002627
:102CD00009E06888A04203D32E706E80012070BD89
:102CE0003220FEF7F9FC00F075F8C007F1D12E7024
:102CF0006E8070BD1800002038B50DA000680090EF
:102D0000FFF7C6FF002811D1012000F0C7F901220A
:102D10006946684600F0CAF8002000F0BFF97D243B
:102D200024012046FFF7CEFF0028FAD138BD00006D
:102D3000C7000000F8B504460E46771D6420FFF773
:102D4000C1FF002801D00020F8BD144D686800289C
:102D50001DD000F0B3F9384600F050FF6860686895
:102D6000002819D03946FDF759FA68680B2101701F
:102D7000210C4170210A8170C470002101713A4612
:102D8000014600F093F8AE606868401DF8BD384613
:102D900000F034FF6860E2E70020F8BD1800002072
:102DA0001CB50AA0006801900422694601A800F041
:102DB0007DF8694648788978000409024018694618
:102DC000C9784018024908611CBD00009F0000003E
:102DD000180000201CB50CA0006801900222694672
:102DE00001A800F063F805206946087100204871C9
:102DF0000222891C01A800F059F869464878C97870
:102E00000002401880B21CBD3500000010B5054C12
:102E10006068002804D000F051F900206060A060D4
:102E200010BD00001800002010B5044CE068002818
:102E300003D000F043F90020E06010BD180000202E
:102E400008B50AA000680090FFF722FF00280BD108
:102E500001226946684600F029F899200090012275
:102E60006946684600F022F808BD000066000000D0
:102E700038B50021009120216A461170010C517073
:102E8000010A9170D070012000F008F9042269460F
:102E9000684600F00BF8002000F000F97D24E40003
:102EA0002046FFF70FFF0028FAD138BD10B51023D8
:102EB00005242407A36292B200F014FA1020A06146
:102EC00010BD000003480178002902D04188491C48
:102ED0004180704718000020F7B586B00F461546B0
:102EE000069805906A46107D40190490107D40199F
:102EF000010A107D40190006000E01D0012000E0FB
:102F00000020081803900020029001906946087B79
:102F1000012808D0FF240534FFF7BAFE002804D0AA
:102F2000EE2009B0F0BD2C1DF6E77D20C000FFF7B4
:102F3000C9FE0028F9D1584EF06800280DD000F0E5
:102F4000BDF8204600F05AFEF060F068002809D075
:102F50002146FDF763F9002490E0204600F04EFE84
:102F6000F060F2E700F0AAF8EE20DAE7F06802215C
:102F70000170069922025118002C02D06A46127D77
:102F800000E000228A1A120C4270002C02D06A461D
:102F9000127D00E000228A1A120A8270002C02D0F0
:102FA0006A46127D00E00022891AC170002C04D00C
:102FB000FFF76EFE002866D125E069460A7DFF21F5
:102FC00001318A1AAA4201D92A4602E06A46127DD4
:102FD0008A1A029269460A893946001DFDF705F9E9
:102FE000012000F05BF869460A89F168121D084665
:102FF000FFF75CFF002000F051F8694688880989D6
:103000004018019038E06846007B401E844218D189
:103010006846017C02918088391868460289F06808
:10302000001DFDF7E2F8012000F038F8684602893B
:10303000F168121D0846FFF739FF002000F02EF856
:103040001AE0FF2201320292684680883918F0683F
:10305000001DFDF7CAF8012000F020F8F168FF22FA
:1030600005320846FFF722FF002000F017F86846F7
:103070008188008909180191641CE4B26846007BCC
:10308000844200D272E77D24E4002046FFF71AFE56
:103090000028FAD145E700001800002008B50021FB
:1030A0000091002802D00620009001E0042000904A
:1030B000012269466846FFF7F9FE08BD10B50028F1
:1030C00023D0124B0022001F196803E0814203D86D
:1030D0000A4649680029F9D1002A0AD01368841ADF
:1030E0009C4204D1006818181060104602E050603D
:1030F00000E01860002907D002680B1A934203D140
:103100000B68D21802604968416010BD300200208F
:1031100070B504460D46002C02D0A068002801D0EE
:10312000EE2070BD0C2000F069FD002811D00022B7
:103130006168002904D00C46521CD2B2202AF7D371
:10314000A1684860A168816044600560A0600020BB
:1031500070BDEE2070BD10B50C2000F04FFD044690
:1031600020000ED00C2000F049FD00280BD00021DB
:1031700021606160A1600160416084606060204600
:1031800010BD002010BD2046FFF798FF002010BDA5
:1031900070B5002802D08168002901D0EE2070BDF2
:1031A000044600256068002809D0214604460846E8
:1031B000FFF784FF6D1CEDB2202DF3D302E0204613
:1031C000FFF77CFF002070BD70B506460C46002E50
:1031D0002ED0B06800282BD1002C29D0802000F000
:1031E0000DFD0546280025D00020207072680021C2
:1031F000506800280AD08B001068E8502078401CE6
:1032000020705268491CC9B22029F1D3207880006F
:1032100000F0F4FC0646002E0ED0207829468200ED
:103220003046FCF7E2FF2846FFF748FF304670BD06
:10323000002070BD002070BD2846FFF73FFF002032
:1032400070BD70B505460022002D02D0A868002888
:1032500001D0EE2070BD284600234468002C0BD01E
:1032600006688E4203D1A84201D0024604E02046FF
:103270005B1CDBB2202BF0D3002A0AD05168906887
:1032800088609168506848601046FFF717FF00207B
:1032900070BDEE2070BD000070B5012109030F4C18
:1032A000606888430843606060680121084360608B
:1032B0006068022108436060094D2846FDF77CFEE6
:1032C00003212846FDF778FE20684021084320604E
:1032D000A0680006C00F0028FAD170BD0030014080
:1032E00000000240F7B51D4C1D4D1C4EA8780C3651
:1032F00081511C4FA978301F0F5002212046029A9D
:10330000FDF79CFE0098E9788851E978301F0F504E
:1033100003212046029AFDF791FE02212046FDF787
:103320005FFE03212046FDF75BFE20688104C90F84
:103330000029FAD021688805C10F0029FAD00120A0
:10334000400360600011606002212046FDF734FEFA
:1033500003212046FDF730FEFEBD000000000240C4
:103360008D6300080C300140F8B5274CE069C006B9
:10337000C10F102708262548002924D027620021E4
:103380000546FDF70FFE224820490078091D4058E8
:10339000FF211431081A1F4F80B238800A2804D246
:1033A0001D48FCF73BFF00203880A0693043A06136
:1033B000FF22143200212846FDF734FE0021284662
:1033C000FDF704FEF8BDE1694906C90F002908D0E0
:1033D000402121620121FDF7E5FDA0693843A0618C
:1033E000F8BDE1690907C90F0029F9D0266200215B
:1033F0000546FDF7D7FD01212846FDF7D3FDA0695D
:103400003043A061F8BD00000044004000000240CD
:1034100088630008CC00002048020020F8B505466B
:103420000E46134CE0690006C30F002BFAD0114F73
:1034300001213846FDF7B6FD0F480E4A41780C329F
:103440008D500B4928314078121F8150324601219E
:103450003846FDF7E7FD01213846FDF7B7FDE06985
:103460004006C00F0028FAD040202062F8BD0000BE
:10347000004400400000024088630008F8B5274D72
:1034800000216970A980A970E970254C8F1EA615CE
:10349000002805D000F058F8CC2819D0EE20F8BD4F
:1034A00027610820C0432061E26808208243E2606F
:1034B000E06840084000E060206AB0432062206875
:1034C000400840002060297000F02CF8CC20F8BDA6
:1034D0000120287027610823DB432361E26808216B
:1034E0008A43E260E2688243E260226AB243226277
:1034F00022688243226027612361E2680A43E26016
:10350000E1680143E160216A314321620021616287
:10351000216801432160CC20F8BD0000A4010020F7
:10352000002C014010B5044CA068002803D0FFF720
:10353000C5FD0020A06010BDA401002001488068E6
:1035400070470000A401002010B5FFF7EBFF032433
:103550006402204600F052FB05498860002804D030
:103560002146FCF75BFECC2010BDEE2010BD000014
:10357000A401002070B50546264B27481A7881150E
:10358000002A0BD002221A701A4694885E786400D2
:103590009268002E1CD0012E30D11EE000225A70FD
:1035A0009A809A70DA701A70921E0261D21F0261BC
:1035B000C26808239A43C260C26852085200C260BF
:1035C000026A8A430262016849084900016070BDCD
:1035D00015539A88521C9A8010E0104E16539C88FE
:1035E000641CA4B29C80640016539C88641CA4B222
:1035F0009C80640015539A88521C9A801A79D207CD
:1036000003D00022FDF752FF70BD0222FDF74EFFEE
:1036100070BD0000A4010020002C0140FFFF00004D
:10362000F0B5C1B01A4FB888411E49040A0C397868
:1036300003292BD1FC213B469E78FC2335465D4374
:10364000FC2A01D2C4B205E0521BFC2A01DAD4B232
:1036500000E00C464000FCF74DFD002901D001219F
:1036600000E000214018F87069460E7148718C71B5
:10367000B8682246801C291801A80330FCF7B5FD64
:10368000E41CE2B201A9092002F0E0FB41B0F0BD68
:10369000A4010020F7B594B016460025002401A926
:1036A00000F034FBEE2806D06846C079B04204D062
:1036B000E22017B0F0BDE120FBE7FFF745FFCC2883
:1036C00001D0E420F5E700206946CB790CE015999C
:1036D0000A5C01A90918097C8A4203D9FFF722FF75
:1036E000E720E6E7401CC0B28342F0D80020012268
:1036F00046000BA98A53401CC0B20A28F8D3002107
:10370000581E864618E0481C8446C0B24A0009E0AC
:1037100001AF0BAE3F18B65A3F7C7E430BAFBE5293
:10372000401CC0B28342F3D81598405C0BA9895A5B
:10373000484345196046C1B28E45E4DC1598401EE9
:10374000185C401910906427684600893946FCF7D8
:10375000D1FC401CC0B20A9000265CE0684600899B
:10376000B84201D2099008E031467943411AB94282
:1037700002DA89B2099100E009971099039A484347
:10378000111830467843139008180999FFF7D2FAB8
:103790000890002509988008119024E00020C0437B
:1037A000009008980222401969461290FCF762FDC9
:1037B000002807D112980222801C6946FCF75AFDA6
:1037C00000280BD00024032C0BD3FFF7ABFE2048BE
:1037D00000214180FFF71AFBE5206AE7641CE4B290
:1037E000F1E7AD1CADB21198A842D7D8184D287892
:1037F000BB281BD0FFF7A2FE1399099A490849007C
:1038000040180899FCF7F1FC0998698840084018AD
:103810006880761CF6B20A9886429FD3FFF7F6FAC4
:103820000B48007800280FD0E62042E7FFF786FE1D
:103830001399099A490849004018698849004018B5
:103840000899FCF7D2FCDFE700F0BAF8CC2030E7AB
:10385000B001002010B5FFF771FE002809D006481E
:103860000088002805D00549488000F0A9F8CC2040
:1038700010BDE12010BD0000A8010020B001002013
:10388000FFB581B014461F460026274D00282ED0D4
:103890002946C98801280BD08C4223D1FFF74EFE60
:1038A00000281FD0E8884008688000F089F834E0DC
:1038B000A14211D200290FD0FFF740FE00280BD003
:1038C000FFF73CFEE9883A4640180299FCF78DFC68
:1038D000E888C019E88020E0EE80FFF723FEE320AF
:1038E00005B0F0BDEE80FFF71DFEE420F8E7EE80A6
:1038F000FFF72AFECC2801D0E120F1E703200002E7
:1039000084420CD2002C0AD0FFF718FE3A460299E6
:10391000FCF76BFCE888C019E880CC20E0E7FFF7F3
:1039200001FEE220DCE70000B001002070B5214973
:103930000869C007C00F002836D00120C0430861C5
:103940001D4C6188A088814220D9FFF7F7FDA1882E
:103950001A4D4900405AA84208D1FFF7EFFDA1884F
:10396000491C4A00805AA84200D0A180FFF7E6FD1A
:10397000A1884900405A00F09BFD2079C00714D06F
:10398000002000F0B9FDA088401CA0806088A188BC
:10399000884209D8002020706080A08000F092FD4D
:1039A00000F09AFDFFF7BEFD70BD1E2000F0A4FDE3
:1039B000E9E7000000200040B0010020FFFF000008
:1039C00010B5FFF7BBFD00281BD0104C0020A080D5
:1039D000BB20207000F0A6FDFFF7B0FD618800F06D
:1039E0002BF8FFF7ABFDA1884900405A00F060FDBD
:1039F0002079C00706D0002000F07EFDA088401C82
:103A0000A08010BD1E2000F077FDF7E7B001002078
:103A100030B5002207E05300C45A2502240A2C19AD
:103A2000C452521C92B28A42F5D330BD0148C088BC
:103A300070470000B001002000B5FFF7E9FF00BDAE
:103A400010B5154A1078022802D15078401C5070E9
:103A5000507801281FD901211048C9430161C91FAD
:103A60000161C16808239943C160C16849084900E0
:103A7000C1608115036A8B430362016849084900EC
:103A80000160002050700320107091889068FFF74B
:103A9000BFFFFFF7C5FD10BDA4010020002C0140B1
:103AA0000021017041708170C170704710B50F2105
:103AB0000020FCF7A1FF002801D0002010BD072046
:103AC00010BD0000F8B5FFF7F1FF244B187000247B
:103AD00002250F26DA1D012100280ED05F78B8429A
:103AE00005D058709C70DD701E715C719C71DC7823
:103AF000002C11D0641EDC70F8BD5879401E3B28A4
:103B000003D25878072800D111705C709C70DD706A
:103B10001E715C719C71F8BD9C78002C03D1072844
:103B200000D1517099701C79002C02D0641E1C7158
:103B300005E0072800D1917099710E241C715C7901
:103B40003C2C02D2641C5C71F8BD3C2CFCD10728D3
:103B500000D1D1703D205871F8BD0000D300002085
:103B600008B50121214802680A4302600068084044
:103B7000009009071D484038C26B0A43C263C06BFE
:103B8000084000901A48C16903220902090A9207F5
:103B90001143C161FEF7BEFBFDF7B0FDFDF7D0FD9F
:103BA000FDF758FFFDF7E0FFFDF76CFEFEF744F868
:103BB000FDF720FF0F480169022211430161FCF764
:103BC000B7FEFFF753F800F055F800F011FB14238F
:103BD0001A4609490020FFF753FE14231A460649E6
:103BE0000220FFF74DFEFDF717F8FCE740100240FA
:103BF00004ED00E000E000E000000020F0B50B3034
:103C0000C108C900144F0026144A0FE003688B4214
:103C10000BD38B4205D95C1A4318456830C3083B67
:103C200000E04368136002C004E0021D1068002831
:103C3000ECD13046002803D13868002801D000209C
:103C4000F0BD064A06481060064A121AD208D20091
:103C500044C001203860D7E7340200203002002041
:103C60007C0C0020781C0020014903C9704700002B
:103C70002802002038B5FF200090194800218160FB
:103C8000C160FFF7C3F8174D01212846FFF752F82E
:103C900001780091002C1ED0CC290CD0FFF72CF815
:103CA0007D20C000FFF70EF8CC200090012269466D
:103CB0002846FFF711F90821C802FFF73BF8014633
:103CC00008000AD0064808220830FCF78EFAFFF7F1
:103CD0009DF8002038BDEE2038BDEE2038BD000034
:103CE000200200200840000010B5FF2208210648ED
:103CF000FCF78DFA01208003FFF7BAF8C820FEF721
:103D0000E1FFC0B210BD00002802002010B588B04D
:103D10000C46002C01D00A2802D3EE2008B010BDBA
:103D20001C2148430C4940181C21FFF703F80B499C
:103D3000486000280DD001461C2201A8FCF755FA66
:103D40001C2201A92046FCF750FAFFF75FF800207B
:103D5000E4E7EE20E2E70000094000002002002036
:103D6000F0B5D1B00646344F7D683C68FF221C2177
:103D700001A8FCF74CFAFF21FF22223108A8FCF72A
:103D800046FA324620462946FCF71EFAC043C007D1
:103D90003ED0FFF73BF8FF2401252234AD03214636
:103DA0002846FEF7C7FF394608390860002832D098
:103DB0000146224608A8FCF718FAFFF727F801A9E0
:103DC0003046FFF7A3FFEE2827D02846FFF750F82C
:103DD0001C20704308A940180930FF221C21FCF761
:103DE00016FA01203968B0407A6801437A60396078
:103DF000082108A83A68FCF70AFAFFF707F82246F4
:103E000008A92846FFF768F8FFF700F800240DE03E
:103E1000E12051B0F0BDE220FBE7E320F9E7039891
:103E200021034018FFF724F8641CE4B20498000B47
:103E3000A042F4D8CC20ECE728020020F0B58FB0E7
:103E400007462D4830C80026324620462946FCF752
:103E5000BBF9761CF6B20A2EF6D3002F21D01C2215
:103E6000394608A8FCF7C1F93A7820461646294693
:103E7000FCF7AAF9C043214CC00714D001A9304671
:103E8000FFF744FFEE2829D0FF2008A988701C22E4
:103E900001A908A8FCF7EEF9002821D0EE200FB008
:103EA000F0BDEE20FBE71C20464330191C2208A978
:103EB000FFF712F8EE280FD00F483C780122A240FD
:103EC0000368D443234041680360416008220146EF
:103ED000D002FFF701F8E2E7EE20E0E7EE20DEE7B0
:103EE000B87808A9887038781C2148430A46001918
:103EF00008A9FEF7F1FFD2E72802002009400000E0
:103F00001CB5012269460348FCF7A4FF01990098FB
:103F10001CBD0000D87F000813B5FFF7F1FF009B20
:103F2000019A58405140084304D001226946024892
:103F3000FCF7A6FF1CBD0000D87F00081CB50122BD
:103F400069460348FCF786FF019900981CBD0000F4
:103F5000C07F000813B5FFF7F1FF009B019A58409E
:103F60005140084304D0012269460248FCF788FF0B
:103F70001CBD0000C07F00081CB501226946034833
:103F8000FCF768FF019900981CBD0000F07F000855
:103F900013B5FFF7F1FF009B019A584051400843C9
:103FA00004D0012269460248FCF76AFF1CBD0000EC
:103FB000F07F0008F0B587B0054620A04268016890
:103FC00080680592049106901FA04268016880688D
:103FD00002920191039006A80130FCF766F9A870DF
:103FE00000266846867505A8FCF75FF928706846C4
:103FF000C6740024174FA000395804A8FCF72CF908
:10400000002818D0641CE4B20C2CF4D301ACA01D21
:10401000FCF74BF9287168464672E01CFCF745F93D
:1040200068716846867101A8FCF73FF9A871EE70C7
:10403000EE7107B0F0BD641C6C70E7E74175672056
:10404000313120323032330030393A35393A31317A
:10405000000000001801002010B5024603230C21C7
:10406000014801F0A5FF10BDB80B00201CB50122CE
:1040700069460348FCF7EEFE019900981CBD00005C
:10408000C87F000813B5FFF7F1FF009B019A584065
:104090005140084304D0012269460248FCF7F0FE73
:1040A0001CBD0000C87F00081CB5012269460348FA
:1040B000FCF7D0FE019900981CBD0000E87F0008C5
:1040C00013B5FFF7F1FF009B019A58405140084398
:1040D00004D0012269460248FCF7D2FE1CBD000054
:1040E000E87F000870B5FFF747FF2C4C0002002561
:1040F000000A65602060FFF7D7FF80B2E560A0602E
:1041000000F06AF80002000A65612061FFF7F8FE1E
:10411000C0B2E561A06100F053F8C0B265622062F0
:10412000FFF7A4FFE162A062FFF708FF616320636D
:104130001B4A206861685040084308D100F032F8FB
:104140002046FFF789FF61682068FFF721FFA0691B
:10415000FF22E1695040084305D10021A161E161DE
:104160000146FFF7D9FEA06AE16AC043C94308438C
:1041700005D10021A162E1620146FFF783FF206BB8
:10418000616BC043C943084307D104483030FFF78F
:1041900011FF616B206BFFF7DDFE70BDE0000020BA
:1041A000FFFFFF000448026904490A6042694A604F
:1041B00080698860704700008075FF1FB80B002081
:1041C0001CB5012269460348FCF744FE019900989A
:1041D0001CBD0000D07F00081CB5012269460348C1
:1041E000FCF738FE019900981CBD0000E07F000834
:1041F000F0B5A3B0052424030027002002908148D5
:104200004068002817D002A9FEF7DEFF0646002509
:104210000CE0A800229031587A484068FFF711F866
:1042200022983058FEF74AFF6D1CEDB26846007ABE
:104230008542EED303E0FEF78EFF72494860082006
:10424000FFF7DCFC20906F4D6868002817D020999C
:10425000002917D0FEF7A4FD401E02218140284608
:104260000160FFF701FD05460E460020019028463B
:104270003146019AFBF7A8FFC00707D019E0EE20EE
:1042800023B0F0BDFEF784FFEE20F9E719A90198ED
:10429000FFF73CFD1B98401C0BD01C98002808D051
:1042A000F80005A91B9A0A5040181C9A42607F1C0E
:1042B000FFB20198401CC0B2019001980A28D6D3E1
:1042C000002F03D0012F32D000202EE02098046070
:1042D0004C4A1068001B010B2098416020995068DF
:1042E000FEF716FF89E00246791E219118E0D10001
:1042F000521C05AE9446D200B5587358AE46AB4238
:104300000CD903938B195D68049575467550951902
:10431000696859600399B150049969606146CAB2ED
:1043200021998A42E3DB401CC0B2B842DBD30025AE
:1043300061E0EE0005A88059A04239D90820FFF7B6
:104340005DFC01462F484268002A10D00C6005AA87
:104350009259121B120B4A604068FEF7D9FE05A85D
:1043600030184068010B000503D0012002E0E12075
:1043700086E700200818010305A880590C18781E4C
:10438000854236D11F4E3068844232D20820FFF772
:1043900035FC01467068002808D00C603068001BAE
:1043A000000B48607068FEF7B3FE22E0E22067E78A
:1043B00005A9A0421DD1711849680A0B090501D051
:1043C000012100E00021511809030C18781E8542D4
:1043D0000FD10820FFF712FC01460A484268002A64
:1043E0000DD00C600268121B120B4A604068FEF789
:1043F0008FFE6D1CEDB2BD429BD3002040E7E32051
:104400003EE7000014020020F8B5054600200090A9
:10441000264869464068FEF7D7FE0446200005D0CE
:1044200068460078002801D000213AE00020F8BD5D
:104430008A00A25852681203AA4230D9280B2A05D2
:1044400001D0012200E000228E00A15982184B68A1
:1044500012031F03BA1A01273F03BA4215D90F6886
:104460002A0501D0012200E0002282189A1A4A602F
:10447000290501D0012100E0002140180103A059C5
:104480000268891801603846F8BD0D680748406821
:10449000FEF7D7FEA059FEF711FE2846F8BD491CCD
:1044A000C9B28142C4D30020F8BD0000140200202C
:1044B0000349C86208680122104308607047000081
:1044C00000200040034801684908490001600021BC
:1044D000C162704700200040FF2101310548026A97
:1044E0008A4302620021C1630168490849000160F2
:1044F000704700000004004010B5642801D9EE2088
:1045000010BD074C002807D0E26A64215043FBF736
:10451000F1FDE063002010BD0020E06310BD00004D
:1045200000040040FF2201320548016A1143016284
:104530000021C1630168012211430160704700003E
:104540000004004008B500220092002801D0002994
:1045500007D0E0200090012269460F2001F076FC90
:1045600008BDFFF777F90090012269460F2001F09E
:104570006DFC08BD38B5044600200090002C01D029
:10458000012907D0E020694608700122082001F0C7
:104590005DFC38BD2078CC2500280ED00120FEF728
:1045A0006DFFCC2815D0207869460870E12048704E
:1045B0000222082001F04AFC38BD0020FEF75EFF11
:1045C0002078694608704D700222082001F03EFCF8
:1045D00038BD2078694608704D700222082001F02D
:1045E00035FC38BD38B5044600200090002C01D0C1
:1045F00004290CD221786A461170E0215170907024
:10460000D070042269460E2001F020FC38BD60788D
:10461000A1780002401882B2E3782078211DFFF7CC
:104620002FF90546FFF702FA21786A461170557096
:10463000010A9170D070042269460E2001F006FC38
:1046400038BD0000F8B5044600260096002C0BD0BB
:10465000032909D1284D22782878824204D1274F96
:10466000637839788B420DD020786946087060787D
:104670004870A0788870E020C8700422092001F0FA
:10468000E5FBF8BDA378012B1AD0022B1BD0CC2B55
:10469000F7D1491E884204DA401C2870FEF7C0FF9B
:1046A000F8BD88420FD069460A7060784870A078DB
:1046B0008870E120C8700422092001F0C7FBF8BD12
:1046C000FEF7AEFFF8BDFEF72DFF0D4806700D4852
:1046D00006700D4806802E703E702078694608707E
:1046E00060784870A0788870CC20C87004220920B7
:1046F00001F0ACFBF8BD0000A6010020A7010020DE
:10470000A4010020A5010020A8010020F0B591B06F
:1047100004460E4600201090002509900A9007904C
:104720000890FF22082109A8FBF771FD002C13D087
:10473000002E11D020786946FFF7E8FA6846007825
:104740002178884210D0E1201090012210A90B207E
:1047500001F07CFB11B0F0BDE0201090012210A907
:104760000B2001F073FBF5E70298401C0CD0684663
:10477000C078761EB0420FD0E3201090012210A91D
:104780000B2001F063FBE5E7E2201090012210A965
:104790000B2001F05BFBDDE7684681883A48008822
:1047A000814207D0E4201090012210A90B2001F0D3
:1047B0004DFBCFE7FEF7C2FE00280ED000200121FE
:1047C00043000BAAD152401CC0B20A28F8D30021E2
:1047D0006846C378581E864620E0E52010900122E6
:1047E00010A90B2001F032FBB4E7481C8446C0B28C
:1047F0004A0009E06F460BAE3F18B65A3F7C7E4335
:104800000BAFBE52401CC0B28342F3D860180BA954
:104810004078895A484345196046C1B28E45E4DC68
:10482000E05C401969468988029A4143541808217E
:104830002046FEF77FFA05460822294607A8FBF71F
:10484000D4FC0822294609A8FBF714FD002807D04C
:10485000E6201090012210A90B2001F0F7FA79E769
:10486000FEF76CFE0146084800884004020C204612
:10487000FEF732FBFEF756FECC201090012210A965
:104880000B2001F0E3FA65E7A80100203EB5002403
:10489000029414A109680191FF210091002805D01C
:1048A000022201A9FBF7E6FC002806D002940122AF
:1048B00002A9122001F0CAFA3EBDCC240094FEF7F2
:1048C0001BFA7D20C000FEF7FDF90122694606486B
:1048D000FEF702FB0294012202A9122001F0B6FAAF
:1048E0003EBD0000CDCA00000840000038B50024DD
:1048F0000094FEF7B5F9C0B2014615390B2904D86A
:10490000CC216A461170507002E068460470447011
:1049100002226946002001F099FA38BD08B500224C
:104920000092002801D0002907D0E02069460870D5
:1049300001220A2001F08AFA08BD07486A46017878
:1049400011704178517080789070032269460A2076
:1049500001F07CFA08BD0000B8010020F0B5A9B054
:10496000044664210FA8FBF759FC0026002C20D038
:10497000FF221C2101A8FBF74AFC00200121430073
:1049800009AAD152401CC0B20A28F8D3207801A944
:10499000FFF7BCF9684600792178884212D0E120FF
:1049A00008A9087701220FA9062001F04FFA29B0C3
:1049B000F0BDE02008A9087701220FA9062001F028
:1049C00045FAF4E70398401C08D06078A178864641
:1049D000884217D1704600280BD108E0E22008A9D0
:1049E000087701220FA9062001F030FADFE700293D
:1049F00008D0E32008A9087701220FA9062001F0BA
:104A000025FAD4E700206946CD79691E289118E07F
:104A1000411C8C46C9B2420009E001AF09AB7F18C6
:104A20009B5A3F7C7B4309AFBB52491CC9B28D42A4
:104A3000F3D8201809A90079895A48438619604695
:104A4000C0B228998142E3DCA01C285C8219642151
:104A500068460089039B42439B1872466426724352
:104A60009B180E93642801D2C6B205E0821A642A0C
:104A700001DAD6B200E00E46FBF73CFB471C31469C
:104A80000E98FEF757F90890207808A90877607803
:104A900048778F77CE77E11C2A460FAC10A8FBF73A
:104AA000A4FB6019001D32460899FBF79EFBA8196C
:104AB000001DC2B20FA9062001F0C8F977E7F3B5CF
:104AC00089B000200790089000260998002801D09E
:104AD000012909D0E02069460877012207A90720AB
:104AE00001F0B4F90BB0F0BDFFF7BEF804460D4677
:104AF00000273A4620462946FBF766FBC00709D146
:104B000069463846FFF702F968460078FF2801D069
:104B1000039886197F1CFFB20A2FEAD33001000CDC
:104B20000999097802290BD001216A461177010AF7
:104B300051779077032207A9072001F087F9D1E781
:104B4000022069460877300E4877300C8877300AA3
:104B5000C87708A90E70052207A9072001F076F989
:104B6000C0E70000F0B593B00446002011900F900C
:104B700010900D900E900025002C27D001214300AD
:104B800008AAD152401CC0B20A28F8D3FF2208213B
:104B90000FA8FBF73CFB207801A9FFF7B7F8FFF758
:104BA00063F822781746FBF70FFBC0071CD00322DF
:104BB000214611A8FBF719FBE12010A9C8710422B6
:104BC00011A9052001F042F913B0F0BD03222146DE
:104BD00011A8FBF70AFBE02010A9C871042211A953
:104BE000052001F033F9EFE768460179B9420DD0AD
:104BF0000322214611A8FBF7F8FAE22010A9C87198
:104C0000042211A9052001F021F9DDE70398401CD9
:104C100005D000206946CB79591E8C4636E0032228
:104C2000214611A8FBF7E1FAE32010A9C8716946F3
:104C3000CA79211D12A8FBF7D8FA6946C87911A9CB
:104C4000001DC2B2052001F001F9BDE721180A7963
:104C500001A90918097C8A4216D30322214611A80A
:104C6000FBF7C3FAE42010A9C8716946CA79211D6F
:104C700012A8FBF7BAFA6946C87911A9001DC2B299
:104C8000052001F0E3F89FE7401CC0B28445DDDC5D
:104C90006278A1783D484E1E9646B24201DAE2782B
:104CA000C2703A480770724642708170B64504D1AE
:104CB00036490020087048708870002118E0481CB0
:104CC0001290C0B24A0009E001AF08AE3F18B65AD0
:104CD0003F7C7E4308AFBE52401CC0B28342F3D833
:104CE000601808A90079895A484345191298C1B239
:104CF0008C45E4DCE01C185C401969460989039A7C
:104D00004143521821497046C97848431518082173
:104D10002846FEF70FF80646082231460DA8FBF795
:104D200064FA082231460FA8FBF7A4FA00280DD038
:104D30000322214611A8FBF758FAE52010A9C871F3
:104D4000042211A9052001F081F83DE76946C979DF
:104D5000201D0918E2782846FEF7BEF803222146F6
:104D600011A8FBF742FACC2010A9C8716946CA798C
:104D7000211D12A8FBF739FA6946C87911A9001D4F
:104D8000C2B2052001F062F81EE70000B801002061
:104D900070B58EB004460E461C2107A8FBF73EFAFC
:104DA0001C2107A8FBF73AFA0025002C01D0012EA0
:104DB00008D068460577012207A9102001F046F8BF
:104DC0000EB070BD20786946FEF7A0FF69460878EE
:104DD000087748784877887888778888020ACA7779
:104DE00008A908700298000E48700298000C88709C
:104DF0000298000AC870029808710398000E487162
:104E00000398000C88710398000AC871039808720F
:104E10006946C87808A948720A2801D908A84572C5
:104E2000002007AA694605E00B181B7C1418A37321
:104E3000401CC0B208AB5B7A8342F5D808A8407A20
:104E400007A90E30C2B2102001F000F8B8E7FEB595
:104E500000270020009001900290002907D0E02058
:104E6000694608700122022000F0F0FFFEBDFEF747
:104E7000FBFE04460D460026324620462946FBF737
:104E8000A3F9C00701D168460670761CF6B20A2E57
:104E9000F2D300260DE0324620462946FBF794F96E
:104EA000C00704D06846C01946707F1CFFB2761C4C
:104EB000F6B268460078B042EDD8002F06D07F1CCD
:104EC000FAB26946022000F0C1FFFEBD0122694628
:104ED000022000F0BBFFFEBD30B58FB004460D468A
:104EE0001C2108A8FBF79AF91C2108A8FBF796F9E2
:104EF000002C01D0012D08D0E02008A90870012263
:104F0000032000F0A3FF0FB030BD207801A9FEF709
:104F1000FDFE002807D0E12008A908700122032027
:104F200000F094FFEFE76A46107908AA10706A460D
:104F3000507908AA50706A46907908AA90706A461B
:104F4000108908AA010AD17010716A46D07908AA9E
:104F500050710A2802D9002008A94871002008AA27
:104F600001A905E00B181B7C1418A371401CC0B2EA
:104F700008AB5B798342F5D808A8407908A9801D61
:104F8000C2B2032000F062FFBDE700001CB504467A
:104F9000002001900FA000680090002C06D0022293
:104FA0006946601CFBF766F9002807D0E0200190F5
:104FB000012201A9042000F049FF1CBD2078FEF762
:104FC000CFFE0190FFF714F9012201A9042000F09F
:104FD0003DFF1CBD444C00001CB5002101910EA1F9
:104FE00009680091002805D002226946FBF742F9C2
:104FF000002807D0EE200190012201A9112000F025
:1050000025FF1CBDFEF770FECC200190012201A9F6
:10501000112000F01BFF1CBD1111000030B589B03C
:10502000044600200890E025002C01D0022907D07A
:105030000895012208A90D2000F008FF09B030BD35
:10504000207801A9FEF762FEEE2809D06078CC280E
:105050000ED00895012208A90D2000F0F7FEEDE71B
:10506000E1200890012208A90D2000F0EFFEE5E7FD
:10507000CC246846847101A8FEF7E0FE0894012262
:1050800008A90D2000F0E2FED8E7F0B58FB0044685
:105090000E46FF221C2108A8FBF7B9F8FF221C21AD
:1050A00001A8FBF7B4F8002000900125FEF7DCFD15
:1050B000002C05D0052E03D32279761FB24208D0EA
:1050C000E020009001226946104600F0BFFE0FB0BC
:1050D000F0BD22781646FBF777F8C007CC270028EA
:1050E0000DD13046FEF73CFECC2807D0E1200090E1
:1050F00001226946104600F0A9FEE8E70097FFF795
:1051000077F8207808A9087060784870A078E1786E
:105110000002401883B269468B84207908A9C870C0
:105120000020227907E02118497900290ED069432F
:105130008DB2401CC0B28242F5D86B43D817000D27
:10514000C0180113180509D0012008E0E2200090E2
:1051500001226946104600F079FEB8E700200818E1
:1051600000030B902279611D0CA8FBF73EF80B9809
:10517000FFF74AF900280FD00A9008A8FEF75EFE54
:10518000002811D0E420009001226946104600F06A
:105190005DFEFFF72DF89AE7E320009001226946B3
:1051A000104600F053FE92E7207801A9FEF7AEFD0D
:1051B0001C2208A901A8FBF75DF8002807D0E5200C
:1051C000009001226946104600F040FE7FE70097FC
:1051D00001226946104600F039FE78E710B5044612
:1051E0000B4661682068884201D1002010BD016A29
:1051F00020221846FAF7F9FF2068016A2160FDF7BE
:105200005DFFA068401EA060012010BD10B50446DF
:1052100061682068884201D1002010BD016A2160C8
:10522000FDF74CFFA068401EA060012010BD70B5C6
:1052300005460E4624210120FBF729F80446002CE0
:105240000ED0202231462046FAF7CFFF0020206200
:10525000686804626C60A868401CA860012070BD8A
:10526000002070BD70B524210120FBF710F8044622
:10527000002525620C210120FBF709F84460046039
:10528000856070BDF8B52B4D082129702A4918C9D1
:105290002A495940214308D002266E70284A294FD6
:1052A00006CA4F40174302D004E00A26F5E7042758
:1052B0003E436E7017040E0C3E43AE7016060A0A8B
:1052C0003243EA7029712206190A11436971AB71E0
:1052D0001A21E9710E212972202309221A49002876
:1052E0000DD06878184368702A70887C6872401CFA
:1052F000C0B28874FF2811D1002088740EE068784D
:105300004024204368700C79A40607D518436870C0
:105310002A700D48C9781630085C68720B4C2068FA
:105320008168102901DBFFF771FF02492068FFF750
:105330007EFFF8BD340C0020E8000020FFFF0000D5
:10534000E0000020FFFFFF005C0300209C01002024
:10535000F8B51E4C082020701D491E4A03C9424062
:105360000A4330D002251C4B0CCB1F04160C3E43C5
:10537000A6701B06160A1E43E67022710A06010A71
:1053800011436171A0711A20E07107202072402042
:105390000543657011480179890608D520210D4320
:1053A000657009212170C1781630085C60720C4C60
:1053B00020688168102901DBFFF728FF0349206876
:1053C000FFF735FFF8BD0A25CDE70000340C0020BB
:1053D000E8000020FFFF0000E00000205C03002048
:1053E0009C010020F8B5214C0A2020702049214A58
:1053F00003C942400A4336D002251F4B0CCB1F0481
:10540000160C3E43A6701B06160A1E43E670227158
:105410000A06010A11436171A0711A20E071092086
:1054200020721648C17F6172014620310978A1724D
:1054300040210D4365700179890608D520210D436F
:1054400065700B212170C1781630085CE0720C4C3D
:1054500020688168102901DBFFF7D8FE0349206826
:10546000FFF7E5FEF8BD0A25C7E70000340C002071
:10547000E8000020FFFF0000E00000205C030020A7
:105480009C010020004870475C030020F8B54B4D9C
:105490004B4B284601462A78363000901631186862
:1054A000002A09D02C4620340026464F012A13D06A
:1054B000022A41D02E70F8BDFFF790FE002801D0DF
:1054C00000F000FA404800990068FFF787FE0028C6
:1054D000F1D001202870F8BD3C480078002803D0A6
:1054E0003A49401E0870F8BDA07D401CC1B200982A
:1054F000FCF740FE36480078012808D0E07D042102
:105500000840F87000280BD00220287009E03149CB
:10551000072203C90023FAF717FE2C480270F8BDD2
:105520002E70A07F0928FAD1E07F0028F7D02A4802
:105530000078FBF771F9F8BDFFF750FE00280ED098
:1055400000F0C0F9687D002809D00020A17F0E2955
:1055500017D0EA7B8A4200D10120012818D0787840
:10556000401CC0B27870A17F0E2915D01428E2D358
:105570007E70B87804281DD201212970401CB870B3
:10558000AAE7E97B0E2901D00D29E6D10120E4E745
:10559000BE707E702E70F8BDC828FCD37E70B878BF
:1055A000B42804D201212970401CB87094E72E70F1
:1055B000BE70F8BD2E70BE70F8BD00005C03002008
:1055C00098010020CE0000209C010020A0010020B6
:1055D00096010020E0000020F80000200022FF29B2
:1055E0000AD0FF280AD005280AD3431F994201DBBD
:1055F00081420CD901220AE001207047012206E015
:105600000346FA33994202D2814200D90122104660
:10561000704700000248FF21C17401757047000007
:105620005C03002070B5264C112020702549264AC5
:1056300003C942400A4340D002226270234B0CCB84
:105640001D04160C2E43A6701D06130A2B43E3708F
:1056500022710A06010A11436171A0711A20E071DA
:105660000A2020721A4AD07F60720020194925183A
:105670000B5CAB72401CC0B20828F8D360784021A4
:1056800008436070117989060BD5202108436070AA
:105690002078401CC0B220700D49D2781631515C80
:1056A00021540D4C20688168102901DBFFF7AEFD05
:1056B00003492068FFF7BBFD70BD0A22BDE700006B
:1056C000340C0020E8000020FFFF0000E000002074
:1056D0005C030020080100209C010020F8B58446EE
:1056E000274D08202870274806C8274848401043FF
:1056F00026D002266E70254818C820041F0C0743C8
:10570000AF7024061F0A2743EF702B711206080A98
:1057100010436871A9711A20E8710D202872634640
:10572000202209201A49002B0FD016436E702870D2
:10573000887C6872401CC0B28874FF2802D012E0D6
:105740000A26D7E7002088740DE040231E436E70C0
:105750000B799B0607D516436E7028700C48C978E4
:105760001630085C68720B4C20688168102901DBD8
:10577000FFF74CFD02492068FFF759FDF8BD000016
:10578000340C0020E8000020FFFF0000E0000020B3
:105790005C0300209C01002010B51F48C17B0079EC
:1057A000891F0B00FDF75AF8092612171C21302B10
:1057B000060C0B00400702D50020FFF78FFF10BD3D
:1057C0004007FCD50020FFF75DFD10BD4007FCD56C
:1057D000FFF7BEFD10BD4007FCD500F0C5FA10BDB7
:1057E0004007FCD5FFF7FEFD10BD4007FCD5FFF7D5
:1057F00019FF10BD4007FCD500F016F810BD40079A
:10580000FCD500F0F3F910BD4107FCD5C006FAD471
:1058100000F05CFA10BD00005C03002010B5012010
:10582000FFF75CFF10BD0000F8B5204C0A20207087
:105830001F49204A03C942400A4334D002251E4B67
:105840000CCB1F04160C3E43A6701B06160A1E4303
:10585000E67022710A06010A11436171A0711A20D3
:10586000E07106202072FF206072A0724020054384
:10587000657012490879800609D5202005436570B6
:105880000B2020700D48C9781630085CE0720C4C73
:1058900020688168102901DBFFF7B8FC0349206804
:1058A000FFF7C5FCF8BD0A25C9E70000340C00204D
:1058B000E8000020FFFF0000E00000205C03002063
:1058C0009C010020F0B585B000240094019402945E
:1058D00003949648837DC370C27D0271017E457E2C
:1058E00009042D024919857E4D198560C17E067F08
:1058F000090289198FB28781417F81738C46817F2C
:10590000C1734475D00744D089498A4E03C94640C3
:105910000E4304D0474020464840074339D16046F3
:105920001A2836D1814ED0061636002807DB824968
:1059300003C945402046484005432AD116E07B482C
:10594000910604D501461531595C417401E0995D19
:105950004174417C002909D0784F491E01208840BC
:10596000A0CFC11728403940084312D06F4D900690
:1059700023D5D00617D450060DD5995DE87CFFF7E6
:105980002DFE002803D0E878805DE8741CE0FFF766
:1059900003FF05B0F0BDA87C995D401E8142F8D19F
:1059A00001206875F5E7995D287DFFF717FE00284F
:1059B000EFD0E878805D287506E0D106FF20002949
:1059C00001DBE87400E0287501216975EA7B57481E
:1059D000921F20301300FCF741FF099215213580FA
:1059E000982F070E0600D4E728794007D1D500206C
:1059F000FFF774FECDE728794007CAD50020FFF7EE
:105A000041FCC6E7A8894A4911C10021FEF758FBAD
:105A100028794007BDD5FFF79BFCBAE74448454AC3
:105A20000021026041601046FEF74AFB28794007DA
:105A3000AFD500F099F9ACE728794007A9D500F077
:105A4000D5F8A6E76B783E4A3E4E002B19D0012BC5
:105A50009FD1E97F01299CD10078A978884298D10B
:105A600039491068FCF701FDA878746030600021A6
:105A7000FEF752FA6C70287940072AD5FFF7B2FC7E
:105A800087E7EB7F002B0ED0022B82D10078746069
:105A900030600021FEF740FA6C702879400714D579
:105AA000FFF7A0FC75E70078A8706970264803909E
:105AB0002648009069461068FCF7A8FC00942879F5
:105AC000400790D5FFF78EFC63E73078FAF7A4FE25
:105AD0005FE73078FAF7A0FE5BE7E87F002808D19F
